:1000000021EF00F00D50070B006E0D30016E013234
:1000100001321F0E011601500F24E96E000E102050
:10002000EA6E016A012A002A01D00136002EFDD7AE
:100030000E5203E00150EF1203D0011E0150EF16E3
:10004000000CF86AD09EEA6AE96A046A80B0042A61
:10005000080E056E090E066E0A0E076E0B0E086E70
:10006000096A81B8092A000E81BA010E010F0A6ED1
:1000700009240B6E0C6AC150C00B0F09C16E070E2C
:10008000B46EB16AF286C00EF212042C06D00C2CAB
:1000900002D00C6A02D0010E0C6E0C2C23D005C0CD
:1000A0000DF0010E0E6E0F0E106E890E0F6EAADF90
:1000B00005C00DF00E6A0F0E106E920E0F6EA2DFCD
:1000C00007C00DF0010E0E6E0F0E106E890E0F6E32
:1000D00099DF07C00DF00E6A0F0E106E920E0F6EB4
:1000E00091DF20D005C00DF00E6A0F0E106E890E44
:1000F0000F6E88DF05C00DF00E6A0F0E106E920EA7
:100100000F6E80DF07C00DF00E6A0F0E106E890EA5
:100110000F6E78DF07C00DF00E6A0F0E106E920E94
:060120000F6E70DF03000A
:020000040030CA
:0E00000038C0190E008381000FC000E00F40D1
:00000001FF
;PIC18F2550
;CRC=E6B5  CREATED="23-ago.-22 18:37"
